{
	"contracts/VariableTypes.sol": {
		"Types": {
			"abi": [
				{
					"inputs": [],
					"name": "angkaku",
					"outputs": [
						{
							"internalType": "int32",
							"name": "",
							"type": "int32"
						}
					],
					"stateMutability": "view",
					"type": "function"
				},
				{
					"inputs": [],
					"name": "angkamu",
					"outputs": [
						{
							"internalType": "uint256",
							"name": "",
							"type": "uint256"
						}
					],
					"stateMutability": "view",
					"type": "function"
				},
				{
					"inputs": [],
					"name": "huruf",
					"outputs": [
						{
							"internalType": "bytes1",
							"name": "",
							"type": "bytes1"
						}
					],
					"stateMutability": "view",
					"type": "function"
				},
				{
					"inputs": [],
					"name": "kalimat",
					"outputs": [
						{
							"internalType": "string",
							"name": "",
							"type": "string"
						}
					],
					"stateMutability": "view",
					"type": "function"
				},
				{
					"inputs": [],
					"name": "tambah",
					"outputs": [],
					"stateMutability": "nonpayable",
					"type": "function"
				},
				{
					"inputs": [],
					"name": "ui_data",
					"outputs": [
						{
							"internalType": "uint32",
							"name": "",
							"type": "uint32"
						}
					],
					"stateMutability": "view",
					"type": "function"
				},
				{
					"inputs": [],
					"name": "valid",
					"outputs": [
						{
							"internalType": "bool",
							"name": "",
							"type": "bool"
						}
					],
					"stateMutability": "view",
					"type": "function"
				}
			],
			"devdoc": {
				"kind": "dev",
				"methods": {},
				"version": 1
			},
			"evm": {
				"assembly": "    /* \"contracts/VariableTypes.sol\":315:699  contract Types {... */\n  mstore(0x40, 0x80)\n    /* \"contracts/VariableTypes.sol\":357:361  true */\n  0x01\n    /* \"contracts/VariableTypes.sol\":337:361  bool public valid = true */\n  0x00\n  dup1\n  0x0100\n  exp\n  dup2\n  sload\n  dup2\n  0xff\n  mul\n  not\n  and\n  swap1\n  dup4\n  iszero\n  iszero\n  mul\n  or\n  swap1\n  sstore\n  pop\n    /* \"contracts/VariableTypes.sol\":393:396  -32 */\n  0xffffffffffffffffffffffffffffffffffffffffffffffffffffffffffffffe0\n    /* \"contracts/VariableTypes.sol\":370:396  int32 public angkaku = -32 */\n  0x00\n  exp(0x0100, 0x01)\n  dup2\n  sload\n  dup2\n  0xffffffff\n  mul\n  not\n  and\n  swap1\n  dup4\n  0x03\n  signextend\n  0xffffffff\n  and\n  mul\n  or\n  swap1\n  sstore\n  pop\n    /* \"contracts/VariableTypes.sol\":425:426  1 */\n  0x01\n    /* \"contracts/VariableTypes.sol\":403:426  uint public angkamu = 1 */\n  dup1\n  sstore\n    /* \"contracts/VariableTypes.sol\":459:468  5_01_2021 */\n  0x4c7a35\n    /* \"contracts/VariableTypes.sol\":435:468  uint32 public ui_data = 5_01_2021 */\n  0x02\n  exp(0x0100, 0x00)\n  dup2\n  sload\n  dup2\n  0xffffffff\n  mul\n  not\n  and\n  swap1\n  dup4\n  0xffffffff\n  and\n  mul\n  or\n  swap1\n  sstore\n  pop\n    /* \"contracts/VariableTypes.sol\":613:639  bytes1 public  huruf = \"A\" */\n  0x4100000000000000000000000000000000000000000000000000000000000000\n  0x02\n  exp(0x0100, 0x05)\n  dup2\n  sload\n  dup2\n  0xff\n  mul\n  not\n  and\n  swap1\n  dup4\n  0xf8\n  shr\n  mul\n  or\n  swap1\n  sstore\n  pop\n    /* \"contracts/VariableTypes.sol\":646:695  string public  kalimat = \"ini adalah data string\" */\n  mload(0x40)\n  dup1\n  0x40\n  add\n  0x40\n  mstore\n  dup1\n  0x16\n  dup2\n  mstore\n  0x20\n  add\n  0x696e69206164616c6168206461746120737472696e6700000000000000000000\n  dup2\n  mstore\n  pop\n  0x03\n  swap1\n  dup2\n  tag_1\n  swap2\n  swap1\n  tag_2\n  jump\t// in\ntag_1:\n  pop\n    /* \"contracts/VariableTypes.sol\":315:699  contract Types {... */\n  callvalue\n  dup1\n  iszero\n  tag_3\n  jumpi\n  0x00\n  dup1\n  revert\ntag_3:\n  pop\n  jump(tag_4)\n    /* \"#utility.yul\":7:106   */\ntag_5:\n    /* \"#utility.yul\":59:65   */\n  0x00\n    /* \"#utility.yul\":93:98   */\n  dup2\n    /* \"#utility.yul\":87:99   */\n  mload\n    /* \"#utility.yul\":77:99   */\n  swap1\n  pop\n    /* \"#utility.yul\":7:106   */\n  swap2\n  swap1\n  pop\n  jump\t// out\n    /* \"#utility.yul\":112:292   */\ntag_6:\n    /* \"#utility.yul\":160:237   */\n  0x4e487b7100000000000000000000000000000000000000000000000000000000\n    /* \"#utility.yul\":157:158   */\n  0x00\n    /* \"#utility.yul\":150:238   */\n  mstore\n    /* \"#utility.yul\":257:261   */\n  0x41\n    /* \"#utility.yul\":254:255   */\n  0x04\n    /* \"#utility.yul\":247:262   */\n  mstore\n    /* \"#utility.yul\":281:285   */\n  0x24\n    /* \"#utility.yul\":278:279   */\n  0x00\n    /* \"#utility.yul\":271:286   */\n  revert\n    /* \"#utility.yul\":298:478   */\ntag_7:\n    /* \"#utility.yul\":346:423   */\n  0x4e487b7100000000000000000000000000000000000000000000000000000000\n    /* \"#utility.yul\":343:344   */\n  0x00\n    /* \"#utility.yul\":336:424   */\n  mstore\n    /* \"#utility.yul\":443:447   */\n  0x22\n    /* \"#utility.yul\":440:441   */\n  0x04\n    /* \"#utility.yul\":433:448   */\n  mstore\n    /* \"#utility.yul\":467:471   */\n  0x24\n    /* \"#utility.yul\":464:465   */\n  0x00\n    /* \"#utility.yul\":457:472   */\n  revert\n    /* \"#utility.yul\":484:804   */\ntag_8:\n    /* \"#utility.yul\":528:534   */\n  0x00\n    /* \"#utility.yul\":565:566   */\n  0x02\n    /* \"#utility.yul\":559:563   */\n  dup3\n    /* \"#utility.yul\":555:567   */\n  div\n    /* \"#utility.yul\":545:567   */\n  swap1\n  pop\n    /* \"#utility.yul\":612:613   */\n  0x01\n    /* \"#utility.yul\":606:610   */\n  dup3\n    /* \"#utility.yul\":602:614   */\n  and\n    /* \"#utility.yul\":633:651   */\n  dup1\n    /* \"#utility.yul\":623:704   */\n  tag_30\n  jumpi\n    /* \"#utility.yul\":689:693   */\n  0x7f\n    /* \"#utility.yul\":681:687   */\n  dup3\n    /* \"#utility.yul\":677:694   */\n  and\n    /* \"#utility.yul\":667:694   */\n  swap2\n  pop\n    /* \"#utility.yul\":623:704   */\ntag_30:\n    /* \"#utility.yul\":751:753   */\n  0x20\n    /* \"#utility.yul\":743:749   */\n  dup3\n    /* \"#utility.yul\":740:754   */\n  lt\n    /* \"#utility.yul\":720:738   */\n  dup2\n    /* \"#utility.yul\":717:755   */\n  sub\n    /* \"#utility.yul\":714:798   */\n  tag_31\n  jumpi\n    /* \"#utility.yul\":770:788   */\n  tag_32\n  tag_7\n  jump\t// in\ntag_32:\n    /* \"#utility.yul\":714:798   */\ntag_31:\n    /* \"#utility.yul\":535:804   */\n  pop\n    /* \"#utility.yul\":484:804   */\n  swap2\n  swap1\n  pop\n  jump\t// out\n    /* \"#utility.yul\":810:951   */\ntag_9:\n    /* \"#utility.yul\":859:863   */\n  0x00\n    /* \"#utility.yul\":882:885   */\n  dup2\n    /* \"#utility.yul\":874:885   */\n  swap1\n  pop\n    /* \"#utility.yul\":905:908   */\n  dup2\n    /* \"#utility.yul\":902:903   */\n  0x00\n    /* \"#utility.yul\":895:909   */\n  mstore\n    /* \"#utility.yul\":939:943   */\n  0x20\n    /* \"#utility.yul\":936:937   */\n  0x00\n    /* \"#utility.yul\":926:944   */\n  keccak256\n    /* \"#utility.yul\":918:944   */\n  swap1\n  pop\n    /* \"#utility.yul\":810:951   */\n  swap2\n  swap1\n  pop\n  jump\t// out\n    /* \"#utility.yul\":957:1050   */\ntag_10:\n    /* \"#utility.yul\":994:1000   */\n  0x00\n    /* \"#utility.yul\":1041:1043   */\n  0x20\n    /* \"#utility.yul\":1036:1038   */\n  0x1f\n    /* \"#utility.yul\":1029:1034   */\n  dup4\n    /* \"#utility.yul\":1025:1039   */\n  add\n    /* \"#utility.yul\":1021:1044   */\n  div\n    /* \"#utility.yul\":1011:1044   */\n  swap1\n  pop\n    /* \"#utility.yul\":957:1050   */\n  swap2\n  swap1\n  pop\n  jump\t// out\n    /* \"#utility.yul\":1056:1163   */\ntag_11:\n    /* \"#utility.yul\":1100:1108   */\n  0x00\n    /* \"#utility.yul\":1150:1155   */\n  dup3\n    /* \"#utility.yul\":1144:1148   */\n  dup3\n    /* \"#utility.yul\":1140:1156   */\n  shl\n    /* \"#utility.yul\":1119:1156   */\n  swap1\n  pop\n    /* \"#utility.yul\":1056:1163   */\n  swap3\n  swap2\n  pop\n  pop\n  jump\t// out\n    /* \"#utility.yul\":1169:1562   */\ntag_12:\n    /* \"#utility.yul\":1238:1244   */\n  0x00\n    /* \"#utility.yul\":1288:1289   */\n  0x08\n    /* \"#utility.yul\":1276:1286   */\n  dup4\n    /* \"#utility.yul\":1272:1290   */\n  mul\n    /* \"#utility.yul\":1311:1408   */\n  tag_37\n    /* \"#utility.yul\":1341:1407   */\n  0xffffffffffffffffffffffffffffffffffffffffffffffffffffffffffffffff\n    /* \"#utility.yul\":1330:1339   */\n  dup3\n    /* \"#utility.yul\":1311:1408   */\n  tag_11\n  jump\t// in\ntag_37:\n    /* \"#utility.yul\":1429:1468   */\n  tag_38\n    /* \"#utility.yul\":1459:1467   */\n  dup7\n    /* \"#utility.yul\":1448:1457   */\n  dup4\n    /* \"#utility.yul\":1429:1468   */\n  tag_11\n  jump\t// in\ntag_38:\n    /* \"#utility.yul\":1417:1468   */\n  swap6\n  pop\n    /* \"#utility.yul\":1501:1505   */\n  dup1\n    /* \"#utility.yul\":1497:1506   */\n  not\n    /* \"#utility.yul\":1490:1495   */\n  dup5\n    /* \"#utility.yul\":1486:1507   */\n  and\n    /* \"#utility.yul\":1477:1507   */\n  swap4\n  pop\n    /* \"#utility.yul\":1550:1554   */\n  dup1\n    /* \"#utility.yul\":1540:1548   */\n  dup7\n    /* \"#utility.yul\":1536:1555   */\n  and\n    /* \"#utility.yul\":1529:1534   */\n  dup5\n    /* \"#utility.yul\":1526:1556   */\n  or\n    /* \"#utility.yul\":1516:1556   */\n  swap3\n  pop\n    /* \"#utility.yul\":1245:1562   */\n  pop\n  pop\n    /* \"#utility.yul\":1169:1562   */\n  swap4\n  swap3\n  pop\n  pop\n  pop\n  jump\t// out\n    /* \"#utility.yul\":1568:1645   */\ntag_13:\n    /* \"#utility.yul\":1605:1612   */\n  0x00\n    /* \"#utility.yul\":1634:1639   */\n  dup2\n    /* \"#utility.yul\":1623:1639   */\n  swap1\n  pop\n    /* \"#utility.yul\":1568:1645   */\n  swap2\n  swap1\n  pop\n  jump\t// out\n    /* \"#utility.yul\":1651:1711   */\ntag_14:\n    /* \"#utility.yul\":1679:1682   */\n  0x00\n    /* \"#utility.yul\":1700:1705   */\n  dup2\n    /* \"#utility.yul\":1693:1705   */\n  swap1\n  pop\n    /* \"#utility.yul\":1651:1711   */\n  swap2\n  swap1\n  pop\n  jump\t// out\n    /* \"#utility.yul\":1717:1859   */\ntag_15:\n    /* \"#utility.yul\":1767:1776   */\n  0x00\n    /* \"#utility.yul\":1800:1853   */\n  tag_42\n    /* \"#utility.yul\":1818:1852   */\n  tag_43\n    /* \"#utility.yul\":1827:1851   */\n  tag_44\n    /* \"#utility.yul\":1845:1850   */\n  dup5\n    /* \"#utility.yul\":1827:1851   */\n  tag_13\n  jump\t// in\ntag_44:\n    /* \"#utility.yul\":1818:1852   */\n  tag_14\n  jump\t// in\ntag_43:\n    /* \"#utility.yul\":1800:1853   */\n  tag_13\n  jump\t// in\ntag_42:\n    /* \"#utility.yul\":1787:1853   */\n  swap1\n  pop\n    /* \"#utility.yul\":1717:1859   */\n  swap2\n  swap1\n  pop\n  jump\t// out\n    /* \"#utility.yul\":1865:1940   */\ntag_16:\n    /* \"#utility.yul\":1908:1911   */\n  0x00\n    /* \"#utility.yul\":1929:1934   */\n  dup2\n    /* \"#utility.yul\":1922:1934   */\n  swap1\n  pop\n    /* \"#utility.yul\":1865:1940   */\n  swap2\n  swap1\n  pop\n  jump\t// out\n    /* \"#utility.yul\":1946:2215   */\ntag_17:\n    /* \"#utility.yul\":2056:2095   */\n  tag_47\n    /* \"#utility.yul\":2087:2094   */\n  dup4\n    /* \"#utility.yul\":2056:2095   */\n  tag_15\n  jump\t// in\ntag_47:\n    /* \"#utility.yul\":2117:2208   */\n  tag_48\n    /* \"#utility.yul\":2166:2207   */\n  tag_49\n    /* \"#utility.yul\":2190:2206   */\n  dup3\n    /* \"#utility.yul\":2166:2207   */\n  tag_16\n  jump\t// in\ntag_49:\n    /* \"#utility.yul\":2158:2164   */\n  dup5\n    /* \"#utility.yul\":2151:2155   */\n  dup5\n    /* \"#utility.yul\":2145:2156   */\n  sload\n    /* \"#utility.yul\":2117:2208   */\n  tag_12\n  jump\t// in\ntag_48:\n    /* \"#utility.yul\":2111:2115   */\n  dup3\n    /* \"#utility.yul\":2104:2209   */\n  sstore\n    /* \"#utility.yul\":2022:2215   */\n  pop\n    /* \"#utility.yul\":1946:2215   */\n  pop\n  pop\n  pop\n  jump\t// out\n    /* \"#utility.yul\":2221:2294   */\ntag_18:\n    /* \"#utility.yul\":2266:2269   */\n  0x00\n    /* \"#utility.yul\":2221:2294   */\n  swap1\n  jump\t// out\n    /* \"#utility.yul\":2300:2489   */\ntag_19:\n    /* \"#utility.yul\":2377:2409   */\n  tag_52\n  tag_18\n  jump\t// in\ntag_52:\n    /* \"#utility.yul\":2418:2483   */\n  tag_53\n    /* \"#utility.yul\":2476:2482   */\n  dup2\n    /* \"#utility.yul\":2468:2474   */\n  dup5\n    /* \"#utility.yul\":2462:2466   */\n  dup5\n    /* \"#utility.yul\":2418:2483   */\n  tag_17\n  jump\t// in\ntag_53:\n    /* \"#utility.yul\":2353:2489   */\n  pop\n    /* \"#utility.yul\":2300:2489   */\n  pop\n  pop\n  jump\t// out\n    /* \"#utility.yul\":2495:2681   */\ntag_20:\n    /* \"#utility.yul\":2555:2675   */\ntag_55:\n    /* \"#utility.yul\":2572:2575   */\n  dup2\n    /* \"#utility.yul\":2565:2570   */\n  dup2\n    /* \"#utility.yul\":2562:2576   */\n  lt\n    /* \"#utility.yul\":2555:2675   */\n  iszero\n  tag_57\n  jumpi\n    /* \"#utility.yul\":2626:2665   */\n  tag_58\n    /* \"#utility.yul\":2663:2664   */\n  0x00\n    /* \"#utility.yul\":2656:2661   */\n  dup3\n    /* \"#utility.yul\":2626:2665   */\n  tag_19\n  jump\t// in\ntag_58:\n    /* \"#utility.yul\":2599:2600   */\n  0x01\n    /* \"#utility.yul\":2592:2597   */\n  dup2\n    /* \"#utility.yul\":2588:2601   */\n  add\n    /* \"#utility.yul\":2579:2601   */\n  swap1\n  pop\n    /* \"#utility.yul\":2555:2675   */\n  jump(tag_55)\ntag_57:\n    /* \"#utility.yul\":2495:2681   */\n  pop\n  pop\n  jump\t// out\n    /* \"#utility.yul\":2687:3230   */\ntag_21:\n    /* \"#utility.yul\":2788:2790   */\n  0x1f\n    /* \"#utility.yul\":2783:2786   */\n  dup3\n    /* \"#utility.yul\":2780:2791   */\n  gt\n    /* \"#utility.yul\":2777:3223   */\n  iszero\n  tag_60\n  jumpi\n    /* \"#utility.yul\":2822:2860   */\n  tag_61\n    /* \"#utility.yul\":2854:2859   */\n  dup2\n    /* \"#utility.yul\":2822:2860   */\n  tag_9\n  jump\t// in\ntag_61:\n    /* \"#utility.yul\":2906:2935   */\n  tag_62\n    /* \"#utility.yul\":2924:2934   */\n  dup5\n    /* \"#utility.yul\":2906:2935   */\n  tag_10\n  jump\t// in\ntag_62:\n    /* \"#utility.yul\":2896:2904   */\n  dup2\n    /* \"#utility.yul\":2892:2936   */\n  add\n    /* \"#utility.yul\":3089:3091   */\n  0x20\n    /* \"#utility.yul\":3077:3087   */\n  dup6\n    /* \"#utility.yul\":3074:3092   */\n  lt\n    /* \"#utility.yul\":3071:3120   */\n  iszero\n  tag_63\n  jumpi\n    /* \"#utility.yul\":3110:3118   */\n  dup2\n    /* \"#utility.yul\":3095:3118   */\n  swap1\n  pop\n    /* \"#utility.yul\":3071:3120   */\ntag_63:\n    /* \"#utility.yul\":3133:3213   */\n  tag_64\n    /* \"#utility.yul\":3189:3211   */\n  tag_65\n    /* \"#utility.yul\":3207:3210   */\n  dup6\n    /* \"#utility.yul\":3189:3211   */\n  tag_10\n  jump\t// in\ntag_65:\n    /* \"#utility.yul\":3179:3187   */\n  dup4\n    /* \"#utility.yul\":3175:3212   */\n  add\n    /* \"#utility.yul\":3162:3173   */\n  dup3\n    /* \"#utility.yul\":3133:3213   */\n  tag_20\n  jump\t// in\ntag_64:\n    /* \"#utility.yul\":2792:3223   */\n  pop\n  pop\n    /* \"#utility.yul\":2777:3223   */\ntag_60:\n    /* \"#utility.yul\":2687:3230   */\n  pop\n  pop\n  pop\n  jump\t// out\n    /* \"#utility.yul\":3236:3353   */\ntag_22:\n    /* \"#utility.yul\":3290:3298   */\n  0x00\n    /* \"#utility.yul\":3340:3345   */\n  dup3\n    /* \"#utility.yul\":3334:3338   */\n  dup3\n    /* \"#utility.yul\":3330:3346   */\n  shr\n    /* \"#utility.yul\":3309:3346   */\n  swap1\n  pop\n    /* \"#utility.yul\":3236:3353   */\n  swap3\n  swap2\n  pop\n  pop\n  jump\t// out\n    /* \"#utility.yul\":3359:3528   */\ntag_23:\n    /* \"#utility.yul\":3403:3409   */\n  0x00\n    /* \"#utility.yul\":3436:3487   */\n  tag_68\n    /* \"#utility.yul\":3484:3485   */\n  0x00\n    /* \"#utility.yul\":3480:3486   */\n  not\n    /* \"#utility.yul\":3472:3477   */\n  dup5\n    /* \"#utility.yul\":3469:3470   */\n  0x08\n    /* \"#utility.yul\":3465:3478   */\n  mul\n    /* \"#utility.yul\":3436:3487   */\n  tag_22\n  jump\t// in\ntag_68:\n    /* \"#utility.yul\":3432:3488   */\n  not\n    /* \"#utility.yul\":3517:3521   */\n  dup1\n    /* \"#utility.yul\":3511:3515   */\n  dup4\n    /* \"#utility.yul\":3507:3522   */\n  and\n    /* \"#utility.yul\":3497:3522   */\n  swap2\n  pop\n    /* \"#utility.yul\":3410:3528   */\n  pop\n    /* \"#utility.yul\":3359:3528   */\n  swap3\n  swap2\n  pop\n  pop\n  jump\t// out\n    /* \"#utility.yul\":3533:3828   */\ntag_24:\n    /* \"#utility.yul\":3609:3613   */\n  0x00\n    /* \"#utility.yul\":3755:3784   */\n  tag_70\n    /* \"#utility.yul\":3780:3783   */\n  dup4\n    /* \"#utility.yul\":3774:3778   */\n  dup4\n    /* \"#utility.yul\":3755:3784   */\n  tag_23\n  jump\t// in\ntag_70:\n    /* \"#utility.yul\":3747:3784   */\n  swap2\n  pop\n    /* \"#utility.yul\":3817:3820   */\n  dup3\n    /* \"#utility.yul\":3814:3815   */\n  0x02\n    /* \"#utility.yul\":3810:3821   */\n  mul\n    /* \"#utility.yul\":3804:3808   */\n  dup3\n    /* \"#utility.yul\":3801:3822   */\n  or\n    /* \"#utility.yul\":3793:3822   */\n  swap1\n  pop\n    /* \"#utility.yul\":3533:3828   */\n  swap3\n  swap2\n  pop\n  pop\n  jump\t// out\n    /* \"#utility.yul\":3833:5228   */\ntag_2:\n    /* \"#utility.yul\":3950:3987   */\n  tag_72\n    /* \"#utility.yul\":3983:3986   */\n  dup3\n    /* \"#utility.yul\":3950:3987   */\n  tag_5\n  jump\t// in\ntag_72:\n    /* \"#utility.yul\":4052:4070   */\n  0xffffffffffffffff\n    /* \"#utility.yul\":4044:4050   */\n  dup2\n    /* \"#utility.yul\":4041:4071   */\n  gt\n    /* \"#utility.yul\":4038:4094   */\n  iszero\n  tag_73\n  jumpi\n    /* \"#utility.yul\":4074:4092   */\n  tag_74\n  tag_6\n  jump\t// in\ntag_74:\n    /* \"#utility.yul\":4038:4094   */\ntag_73:\n    /* \"#utility.yul\":4118:4156   */\n  tag_75\n    /* \"#utility.yul\":4150:4154   */\n  dup3\n    /* \"#utility.yul\":4144:4155   */\n  sload\n    /* \"#utility.yul\":4118:4156   */\n  tag_8\n  jump\t// in\ntag_75:\n    /* \"#utility.yul\":4203:4270   */\n  tag_76\n    /* \"#utility.yul\":4263:4269   */\n  dup3\n    /* \"#utility.yul\":4255:4261   */\n  dup3\n    /* \"#utility.yul\":4249:4253   */\n  dup6\n    /* \"#utility.yul\":4203:4270   */\n  tag_21\n  jump\t// in\ntag_76:\n    /* \"#utility.yul\":4297:4298   */\n  0x00\n    /* \"#utility.yul\":4321:4325   */\n  0x20\n    /* \"#utility.yul\":4308:4325   */\n  swap1\n  pop\n    /* \"#utility.yul\":4353:4355   */\n  0x1f\n    /* \"#utility.yul\":4345:4351   */\n  dup4\n    /* \"#utility.yul\":4342:4356   */\n  gt\n    /* \"#utility.yul\":4370:4371   */\n  0x01\n    /* \"#utility.yul\":4365:4983   */\n  dup2\n  eq\n  tag_78\n  jumpi\n    /* \"#utility.yul\":5027:5028   */\n  0x00\n    /* \"#utility.yul\":5044:5050   */\n  dup5\n    /* \"#utility.yul\":5041:5118   */\n  iszero\n  tag_79\n  jumpi\n    /* \"#utility.yul\":5093:5102   */\n  dup3\n    /* \"#utility.yul\":5088:5091   */\n  dup8\n    /* \"#utility.yul\":5084:5103   */\n  add\n    /* \"#utility.yul\":5078:5104   */\n  mload\n    /* \"#utility.yul\":5069:5104   */\n  swap1\n  pop\n    /* \"#utility.yul\":5041:5118   */\ntag_79:\n    /* \"#utility.yul\":5144:5211   */\n  tag_80\n    /* \"#utility.yul\":5204:5210   */\n  dup6\n    /* \"#utility.yul\":5197:5202   */\n  dup3\n    /* \"#utility.yul\":5144:5211   */\n  tag_24\n  jump\t// in\ntag_80:\n    /* \"#utility.yul\":5138:5142   */\n  dup7\n    /* \"#utility.yul\":5131:5212   */\n  sstore\n    /* \"#utility.yul\":5000:5222   */\n  pop\n    /* \"#utility.yul\":4335:5222   */\n  jump(tag_77)\n    /* \"#utility.yul\":4365:4983   */\ntag_78:\n    /* \"#utility.yul\":4417:4421   */\n  0x1f\n    /* \"#utility.yul\":4413:4422   */\n  not\n    /* \"#utility.yul\":4405:4411   */\n  dup5\n    /* \"#utility.yul\":4401:4423   */\n  and\n    /* \"#utility.yul\":4451:4488   */\n  tag_81\n    /* \"#utility.yul\":4483:4487   */\n  dup7\n    /* \"#utility.yul\":4451:4488   */\n  tag_9\n  jump\t// in\ntag_81:\n    /* \"#utility.yul\":4510:4511   */\n  0x00\n    /* \"#utility.yul\":4524:4732   */\ntag_82:\n    /* \"#utility.yul\":4538:4545   */\n  dup3\n    /* \"#utility.yul\":4535:4536   */\n  dup2\n    /* \"#utility.yul\":4532:4546   */\n  lt\n    /* \"#utility.yul\":4524:4732   */\n  iszero\n  tag_84\n  jumpi\n    /* \"#utility.yul\":4617:4626   */\n  dup5\n    /* \"#utility.yul\":4612:4615   */\n  dup10\n    /* \"#utility.yul\":4608:4627   */\n  add\n    /* \"#utility.yul\":4602:4628   */\n  mload\n    /* \"#utility.yul\":4594:4600   */\n  dup3\n    /* \"#utility.yul\":4587:4629   */\n  sstore\n    /* \"#utility.yul\":4668:4669   */\n  0x01\n    /* \"#utility.yul\":4660:4666   */\n  dup3\n    /* \"#utility.yul\":4656:4670   */\n  add\n    /* \"#utility.yul\":4646:4670   */\n  swap2\n  pop\n    /* \"#utility.yul\":4715:4717   */\n  0x20\n    /* \"#utility.yul\":4704:4713   */\n  dup6\n    /* \"#utility.yul\":4700:4718   */\n  add\n    /* \"#utility.yul\":4687:4718   */\n  swap5\n  pop\n    /* \"#utility.yul\":4561:4565   */\n  0x20\n    /* \"#utility.yul\":4558:4559   */\n  dup2\n    /* \"#utility.yul\":4554:4566   */\n  add\n    /* \"#utility.yul\":4549:4566   */\n  swap1\n  pop\n    /* \"#utility.yul\":4524:4732   */\n  jump(tag_82)\ntag_84:\n    /* \"#utility.yul\":4760:4766   */\n  dup7\n    /* \"#utility.yul\":4751:4758   */\n  dup4\n    /* \"#utility.yul\":4748:4767   */\n  lt\n    /* \"#utility.yul\":4745:4924   */\n  iszero\n  tag_85\n  jumpi\n    /* \"#utility.yul\":4818:4827   */\n  dup5\n    /* \"#utility.yul\":4813:4816   */\n  dup10\n    /* \"#utility.yul\":4809:4828   */\n  add\n    /* \"#utility.yul\":4803:4829   */\n  mload\n    /* \"#utility.yul\":4861:4909   */\n  tag_86\n    /* \"#utility.yul\":4903:4907   */\n  0x1f\n    /* \"#utility.yul\":4895:4901   */\n  dup10\n    /* \"#utility.yul\":4891:4908   */\n  and\n    /* \"#utility.yul\":4880:4889   */\n  dup3\n    /* \"#utility.yul\":4861:4909   */\n  tag_23\n  jump\t// in\ntag_86:\n    /* \"#utility.yul\":4853:4859   */\n  dup4\n    /* \"#utility.yul\":4846:4910   */\n  sstore\n    /* \"#utility.yul\":4768:4924   */\n  pop\n    /* \"#utility.yul\":4745:4924   */\ntag_85:\n    /* \"#utility.yul\":4970:4971   */\n  0x01\n    /* \"#utility.yul\":4966:4967   */\n  0x02\n    /* \"#utility.yul\":4958:4964   */\n  dup9\n    /* \"#utility.yul\":4954:4968   */\n  mul\n    /* \"#utility.yul\":4950:4972   */\n  add\n    /* \"#utility.yul\":4944:4948   */\n  dup9\n    /* \"#utility.yul\":4937:4973   */\n  sstore\n    /* \"#utility.yul\":4372:4983   */\n  pop\n  pop\n  pop\n    /* \"#utility.yul\":4335:5222   */\ntag_77:\n  pop\n    /* \"#utility.yul\":3925:5228   */\n  pop\n  pop\n  pop\n    /* \"#utility.yul\":3833:5228   */\n  pop\n  pop\n  jump\t// out\n    /* \"contracts/VariableTypes.sol\":315:699  contract Types {... */\ntag_4:\n  dataSize(sub_0)\n  dup1\n  dataOffset(sub_0)\n  0x00\n  codecopy\n  0x00\n  return\nstop\n\nsub_0: assembly {\n        /* \"contracts/VariableTypes.sol\":315:699  contract Types {... */\n      mstore(0x40, 0x80)\n      callvalue\n      dup1\n      iszero\n      tag_1\n      jumpi\n      0x00\n      dup1\n      revert\n    tag_1:\n      pop\n      jumpi(tag_2, lt(calldatasize, 0x04))\n      shr(0xe0, calldataload(0x00))\n      dup1\n      0x74e80a49\n      gt\n      tag_10\n      jumpi\n      dup1\n      0x74e80a49\n      eq\n      tag_6\n      jumpi\n      dup1\n      0x861f708f\n      eq\n      tag_7\n      jumpi\n      dup1\n      0xc1991219\n      eq\n      tag_8\n      jumpi\n      dup1\n      0xd0c37748\n      eq\n      tag_9\n      jumpi\n      jump(tag_2)\n    tag_10:\n      dup1\n      0x1a4ae17a\n      eq\n      tag_3\n      jumpi\n      dup1\n      0x48898752\n      eq\n      tag_4\n      jumpi\n      dup1\n      0x72ee2df9\n      eq\n      tag_5\n      jumpi\n    tag_2:\n      0x00\n      dup1\n      revert\n        /* \"contracts/VariableTypes.sol\":613:639  bytes1 public  huruf = \"A\" */\n    tag_3:\n      tag_11\n      tag_12\n      jump\t// in\n    tag_11:\n      mload(0x40)\n      tag_13\n      swap2\n      swap1\n      tag_14\n      jump\t// in\n    tag_13:\n      mload(0x40)\n      dup1\n      swap2\n      sub\n      swap1\n      return\n        /* \"contracts/VariableTypes.sol\":646:695  string public  kalimat = \"ini adalah data string\" */\n    tag_4:\n      tag_15\n      tag_16\n      jump\t// in\n    tag_15:\n      mload(0x40)\n      tag_17\n      swap2\n      swap1\n      tag_18\n      jump\t// in\n    tag_17:\n      mload(0x40)\n      dup1\n      swap2\n      sub\n      swap1\n      return\n        /* \"contracts/VariableTypes.sol\":498:586  function tambah() public {... */\n    tag_5:\n      tag_19\n      tag_20\n      jump\t// in\n    tag_19:\n      stop\n        /* \"contracts/VariableTypes.sol\":370:396  int32 public angkaku = -32 */\n    tag_6:\n      tag_21\n      tag_22\n      jump\t// in\n    tag_21:\n      mload(0x40)\n      tag_23\n      swap2\n      swap1\n      tag_24\n      jump\t// in\n    tag_23:\n      mload(0x40)\n      dup1\n      swap2\n      sub\n      swap1\n      return\n        /* \"contracts/VariableTypes.sol\":435:468  uint32 public ui_data = 5_01_2021 */\n    tag_7:\n      tag_25\n      tag_26\n      jump\t// in\n    tag_25:\n      mload(0x40)\n      tag_27\n      swap2\n      swap1\n      tag_28\n      jump\t// in\n    tag_27:\n      mload(0x40)\n      dup1\n      swap2\n      sub\n      swap1\n      return\n        /* \"contracts/VariableTypes.sol\":337:361  bool public valid = true */\n    tag_8:\n      tag_29\n      tag_30\n      jump\t// in\n    tag_29:\n      mload(0x40)\n      tag_31\n      swap2\n      swap1\n      tag_32\n      jump\t// in\n    tag_31:\n      mload(0x40)\n      dup1\n      swap2\n      sub\n      swap1\n      return\n        /* \"contracts/VariableTypes.sol\":403:426  uint public angkamu = 1 */\n    tag_9:\n      tag_33\n      tag_34\n      jump\t// in\n    tag_33:\n      mload(0x40)\n      tag_35\n      swap2\n      swap1\n      tag_36\n      jump\t// in\n    tag_35:\n      mload(0x40)\n      dup1\n      swap2\n      sub\n      swap1\n      return\n        /* \"contracts/VariableTypes.sol\":613:639  bytes1 public  huruf = \"A\" */\n    tag_12:\n      0x02\n      0x05\n      swap1\n      sload\n      swap1\n      0x0100\n      exp\n      swap1\n      div\n      0xf8\n      shl\n      dup2\n      jump\t// out\n        /* \"contracts/VariableTypes.sol\":646:695  string public  kalimat = \"ini adalah data string\" */\n    tag_16:\n      0x03\n      dup1\n      sload\n      tag_37\n      swap1\n      tag_38\n      jump\t// in\n    tag_37:\n      dup1\n      0x1f\n      add\n      0x20\n      dup1\n      swap2\n      div\n      mul\n      0x20\n      add\n      mload(0x40)\n      swap1\n      dup2\n      add\n      0x40\n      mstore\n      dup1\n      swap3\n      swap2\n      swap1\n      dup2\n      dup2\n      mstore\n      0x20\n      add\n      dup3\n      dup1\n      sload\n      tag_39\n      swap1\n      tag_38\n      jump\t// in\n    tag_39:\n      dup1\n      iszero\n      tag_40\n      jumpi\n      dup1\n      0x1f\n      lt\n      tag_41\n      jumpi\n      0x0100\n      dup1\n      dup4\n      sload\n      div\n      mul\n      dup4\n      mstore\n      swap2\n      0x20\n      add\n      swap2\n      jump(tag_40)\n    tag_41:\n      dup3\n      add\n      swap2\n      swap1\n      0x00\n      mstore\n      keccak256(0x00, 0x20)\n      swap1\n    tag_42:\n      dup2\n      sload\n      dup2\n      mstore\n      swap1\n      0x01\n      add\n      swap1\n      0x20\n      add\n      dup1\n      dup4\n      gt\n      tag_42\n      jumpi\n      dup3\n      swap1\n      sub\n      0x1f\n      and\n      dup3\n      add\n      swap2\n    tag_40:\n      pop\n      pop\n      pop\n      pop\n      pop\n      dup2\n      jump\t// out\n        /* \"contracts/VariableTypes.sol\":498:586  function tambah() public {... */\n    tag_20:\n        /* \"contracts/VariableTypes.sol\":569:578  3.5 + 1.5 */\n      0x05\n        /* \"contracts/VariableTypes.sol\":560:566  result */\n      0x02\n      0x04\n        /* \"contracts/VariableTypes.sol\":560:578  result = 3.5 + 1.5 */\n      0x0100\n      exp\n      dup2\n      sload\n      dup2\n      0xff\n      mul\n      not\n      and\n      swap1\n      dup4\n      0xff\n      and\n      mul\n      or\n      swap1\n      sstore\n      pop\n        /* \"contracts/VariableTypes.sol\":498:586  function tambah() public {... */\n      jump\t// out\n        /* \"contracts/VariableTypes.sol\":370:396  int32 public angkaku = -32 */\n    tag_22:\n      0x00\n      0x01\n      swap1\n      sload\n      swap1\n      0x0100\n      exp\n      swap1\n      div\n      0x03\n      signextend\n      dup2\n      jump\t// out\n        /* \"contracts/VariableTypes.sol\":435:468  uint32 public ui_data = 5_01_2021 */\n    tag_26:\n      0x02\n      0x00\n      swap1\n      sload\n      swap1\n      0x0100\n      exp\n      swap1\n      div\n      0xffffffff\n      and\n      dup2\n      jump\t// out\n        /* \"contracts/VariableTypes.sol\":337:361  bool public valid = true */\n    tag_30:\n      0x00\n      dup1\n      sload\n      swap1\n      0x0100\n      exp\n      swap1\n      div\n      0xff\n      and\n      dup2\n      jump\t// out\n        /* \"contracts/VariableTypes.sol\":403:426  uint public angkamu = 1 */\n    tag_34:\n      sload(0x01)\n      dup2\n      jump\t// out\n        /* \"#utility.yul\":7:156   */\n    tag_44:\n        /* \"#utility.yul\":43:50   */\n      0x00\n        /* \"#utility.yul\":83:149   */\n      0xff00000000000000000000000000000000000000000000000000000000000000\n        /* \"#utility.yul\":76:81   */\n      dup3\n        /* \"#utility.yul\":72:150   */\n      and\n        /* \"#utility.yul\":61:150   */\n      swap1\n      pop\n        /* \"#utility.yul\":7:156   */\n      swap2\n      swap1\n      pop\n      jump\t// out\n        /* \"#utility.yul\":162:277   */\n    tag_45:\n        /* \"#utility.yul\":247:270   */\n      tag_63\n        /* \"#utility.yul\":264:269   */\n      dup2\n        /* \"#utility.yul\":247:270   */\n      tag_44\n      jump\t// in\n    tag_63:\n        /* \"#utility.yul\":242:245   */\n      dup3\n        /* \"#utility.yul\":235:271   */\n      mstore\n        /* \"#utility.yul\":162:277   */\n      pop\n      pop\n      jump\t// out\n        /* \"#utility.yul\":283:501   */\n    tag_14:\n        /* \"#utility.yul\":374:378   */\n      0x00\n        /* \"#utility.yul\":412:414   */\n      0x20\n        /* \"#utility.yul\":401:410   */\n      dup3\n        /* \"#utility.yul\":397:415   */\n      add\n        /* \"#utility.yul\":389:415   */\n      swap1\n      pop\n        /* \"#utility.yul\":425:494   */\n      tag_65\n        /* \"#utility.yul\":491:492   */\n      0x00\n        /* \"#utility.yul\":480:489   */\n      dup4\n        /* \"#utility.yul\":476:493   */\n      add\n        /* \"#utility.yul\":467:473   */\n      dup5\n        /* \"#utility.yul\":425:494   */\n      tag_45\n      jump\t// in\n    tag_65:\n        /* \"#utility.yul\":283:501   */\n      swap3\n      swap2\n      pop\n      pop\n      jump\t// out\n        /* \"#utility.yul\":507:606   */\n    tag_46:\n        /* \"#utility.yul\":559:565   */\n      0x00\n        /* \"#utility.yul\":593:598   */\n      dup2\n        /* \"#utility.yul\":587:599   */\n      mload\n        /* \"#utility.yul\":577:599   */\n      swap1\n      pop\n        /* \"#utility.yul\":507:606   */\n      swap2\n      swap1\n      pop\n      jump\t// out\n        /* \"#utility.yul\":612:781   */\n    tag_47:\n        /* \"#utility.yul\":696:707   */\n      0x00\n        /* \"#utility.yul\":730:736   */\n      dup3\n        /* \"#utility.yul\":725:728   */\n      dup3\n        /* \"#utility.yul\":718:737   */\n      mstore\n        /* \"#utility.yul\":770:774   */\n      0x20\n        /* \"#utility.yul\":765:768   */\n      dup3\n        /* \"#utility.yul\":761:775   */\n      add\n        /* \"#utility.yul\":746:775   */\n      swap1\n      pop\n        /* \"#utility.yul\":612:781   */\n      swap3\n      swap2\n      pop\n      pop\n      jump\t// out\n        /* \"#utility.yul\":787:1033   */\n    tag_48:\n        /* \"#utility.yul\":868:869   */\n      0x00\n        /* \"#utility.yul\":878:991   */\n    tag_69:\n        /* \"#utility.yul\":892:898   */\n      dup4\n        /* \"#utility.yul\":889:890   */\n      dup2\n        /* \"#utility.yul\":886:899   */\n      lt\n        /* \"#utility.yul\":878:991   */\n      iszero\n      tag_71\n      jumpi\n        /* \"#utility.yul\":977:978   */\n      dup1\n        /* \"#utility.yul\":972:975   */\n      dup3\n        /* \"#utility.yul\":968:979   */\n      add\n        /* \"#utility.yul\":962:980   */\n      mload\n        /* \"#utility.yul\":958:959   */\n      dup2\n        /* \"#utility.yul\":953:956   */\n      dup5\n        /* \"#utility.yul\":949:960   */\n      add\n        /* \"#utility.yul\":942:981   */\n      mstore\n        /* \"#utility.yul\":914:916   */\n      0x20\n        /* \"#utility.yul\":911:912   */\n      dup2\n        /* \"#utility.yul\":907:917   */\n      add\n        /* \"#utility.yul\":902:917   */\n      swap1\n      pop\n        /* \"#utility.yul\":878:991   */\n      jump(tag_69)\n    tag_71:\n        /* \"#utility.yul\":1025:1026   */\n      0x00\n        /* \"#utility.yul\":1016:1022   */\n      dup5\n        /* \"#utility.yul\":1011:1014   */\n      dup5\n        /* \"#utility.yul\":1007:1023   */\n      add\n        /* \"#utility.yul\":1000:1027   */\n      mstore\n        /* \"#utility.yul\":849:1033   */\n      pop\n        /* \"#utility.yul\":787:1033   */\n      pop\n      pop\n      pop\n      jump\t// out\n        /* \"#utility.yul\":1039:1141   */\n    tag_49:\n        /* \"#utility.yul\":1080:1086   */\n      0x00\n        /* \"#utility.yul\":1131:1133   */\n      0x1f\n        /* \"#utility.yul\":1127:1134   */\n      not\n        /* \"#utility.yul\":1122:1124   */\n      0x1f\n        /* \"#utility.yul\":1115:1120   */\n      dup4\n        /* \"#utility.yul\":1111:1125   */\n      add\n        /* \"#utility.yul\":1107:1135   */\n      and\n        /* \"#utility.yul\":1097:1135   */\n      swap1\n      pop\n        /* \"#utility.yul\":1039:1141   */\n      swap2\n      swap1\n      pop\n      jump\t// out\n        /* \"#utility.yul\":1147:1524   */\n    tag_50:\n        /* \"#utility.yul\":1235:1238   */\n      0x00\n        /* \"#utility.yul\":1263:1302   */\n      tag_74\n        /* \"#utility.yul\":1296:1301   */\n      dup3\n        /* \"#utility.yul\":1263:1302   */\n      tag_46\n      jump\t// in\n    tag_74:\n        /* \"#utility.yul\":1318:1389   */\n      tag_75\n        /* \"#utility.yul\":1382:1388   */\n      dup2\n        /* \"#utility.yul\":1377:1380   */\n      dup6\n        /* \"#utility.yul\":1318:1389   */\n      tag_47\n      jump\t// in\n    tag_75:\n        /* \"#utility.yul\":1311:1389   */\n      swap4\n      pop\n        /* \"#utility.yul\":1398:1463   */\n      tag_76\n        /* \"#utility.yul\":1456:1462   */\n      dup2\n        /* \"#utility.yul\":1451:1454   */\n      dup6\n        /* \"#utility.yul\":1444:1448   */\n      0x20\n        /* \"#utility.yul\":1437:1442   */\n      dup7\n        /* \"#utility.yul\":1433:1449   */\n      add\n        /* \"#utility.yul\":1398:1463   */\n      tag_48\n      jump\t// in\n    tag_76:\n        /* \"#utility.yul\":1488:1517   */\n      tag_77\n        /* \"#utility.yul\":1510:1516   */\n      dup2\n        /* \"#utility.yul\":1488:1517   */\n      tag_49\n      jump\t// in\n    tag_77:\n        /* \"#utility.yul\":1483:1486   */\n      dup5\n        /* \"#utility.yul\":1479:1518   */\n      add\n        /* \"#utility.yul\":1472:1518   */\n      swap2\n      pop\n        /* \"#utility.yul\":1239:1524   */\n      pop\n        /* \"#utility.yul\":1147:1524   */\n      swap3\n      swap2\n      pop\n      pop\n      jump\t// out\n        /* \"#utility.yul\":1530:1843   */\n    tag_18:\n        /* \"#utility.yul\":1643:1647   */\n      0x00\n        /* \"#utility.yul\":1681:1683   */\n      0x20\n        /* \"#utility.yul\":1670:1679   */\n      dup3\n        /* \"#utility.yul\":1666:1684   */\n      add\n        /* \"#utility.yul\":1658:1684   */\n      swap1\n      pop\n        /* \"#utility.yul\":1730:1739   */\n      dup2\n        /* \"#utility.yul\":1724:1728   */\n      dup2\n        /* \"#utility.yul\":1720:1740   */\n      sub\n        /* \"#utility.yul\":1716:1717   */\n      0x00\n        /* \"#utility.yul\":1705:1714   */\n      dup4\n        /* \"#utility.yul\":1701:1718   */\n      add\n        /* \"#utility.yul\":1694:1741   */\n      mstore\n        /* \"#utility.yul\":1758:1836   */\n      tag_79\n        /* \"#utility.yul\":1831:1835   */\n      dup2\n        /* \"#utility.yul\":1822:1828   */\n      dup5\n        /* \"#utility.yul\":1758:1836   */\n      tag_50\n      jump\t// in\n    tag_79:\n        /* \"#utility.yul\":1750:1836   */\n      swap1\n      pop\n        /* \"#utility.yul\":1530:1843   */\n      swap3\n      swap2\n      pop\n      pop\n      jump\t// out\n        /* \"#utility.yul\":1849:1939   */\n    tag_51:\n        /* \"#utility.yul\":1884:1891   */\n      0x00\n        /* \"#utility.yul\":1927:1932   */\n      dup2\n        /* \"#utility.yul\":1924:1925   */\n      0x03\n        /* \"#utility.yul\":1913:1933   */\n      signextend\n        /* \"#utility.yul\":1902:1933   */\n      swap1\n      pop\n        /* \"#utility.yul\":1849:1939   */\n      swap2\n      swap1\n      pop\n      jump\t// out\n        /* \"#utility.yul\":1945:2057   */\n    tag_52:\n        /* \"#utility.yul\":2028:2050   */\n      tag_82\n        /* \"#utility.yul\":2044:2049   */\n      dup2\n        /* \"#utility.yul\":2028:2050   */\n      tag_51\n      jump\t// in\n    tag_82:\n        /* \"#utility.yul\":2023:2026   */\n      dup3\n        /* \"#utility.yul\":2016:2051   */\n      mstore\n        /* \"#utility.yul\":1945:2057   */\n      pop\n      pop\n      jump\t// out\n        /* \"#utility.yul\":2063:2277   */\n    tag_24:\n        /* \"#utility.yul\":2152:2156   */\n      0x00\n        /* \"#utility.yul\":2190:2192   */\n      0x20\n        /* \"#utility.yul\":2179:2188   */\n      dup3\n        /* \"#utility.yul\":2175:2193   */\n      add\n        /* \"#utility.yul\":2167:2193   */\n      swap1\n      pop\n        /* \"#utility.yul\":2203:2270   */\n      tag_84\n        /* \"#utility.yul\":2267:2268   */\n      0x00\n        /* \"#utility.yul\":2256:2265   */\n      dup4\n        /* \"#utility.yul\":2252:2269   */\n      add\n        /* \"#utility.yul\":2243:2249   */\n      dup5\n        /* \"#utility.yul\":2203:2270   */\n      tag_52\n      jump\t// in\n    tag_84:\n        /* \"#utility.yul\":2063:2277   */\n      swap3\n      swap2\n      pop\n      pop\n      jump\t// out\n        /* \"#utility.yul\":2283:2376   */\n    tag_53:\n        /* \"#utility.yul\":2319:2326   */\n      0x00\n        /* \"#utility.yul\":2359:2369   */\n      0xffffffff\n        /* \"#utility.yul\":2352:2357   */\n      dup3\n        /* \"#utility.yul\":2348:2370   */\n      and\n        /* \"#utility.yul\":2337:2370   */\n      swap1\n      pop\n        /* \"#utility.yul\":2283:2376   */\n      swap2\n      swap1\n      pop\n      jump\t// out\n        /* \"#utility.yul\":2382:2497   */\n    tag_54:\n        /* \"#utility.yul\":2467:2490   */\n      tag_87\n        /* \"#utility.yul\":2484:2489   */\n      dup2\n        /* \"#utility.yul\":2467:2490   */\n      tag_53\n      jump\t// in\n    tag_87:\n        /* \"#utility.yul\":2462:2465   */\n      dup3\n        /* \"#utility.yul\":2455:2491   */\n      mstore\n        /* \"#utility.yul\":2382:2497   */\n      pop\n      pop\n      jump\t// out\n        /* \"#utility.yul\":2503:2721   */\n    tag_28:\n        /* \"#utility.yul\":2594:2598   */\n      0x00\n        /* \"#utility.yul\":2632:2634   */\n      0x20\n        /* \"#utility.yul\":2621:2630   */\n      dup3\n        /* \"#utility.yul\":2617:2635   */\n      add\n        /* \"#utility.yul\":2609:2635   */\n      swap1\n      pop\n        /* \"#utility.yul\":2645:2714   */\n      tag_89\n        /* \"#utility.yul\":2711:2712   */\n      0x00\n        /* \"#utility.yul\":2700:2709   */\n      dup4\n        /* \"#utility.yul\":2696:2713   */\n      add\n        /* \"#utility.yul\":2687:2693   */\n      dup5\n        /* \"#utility.yul\":2645:2714   */\n      tag_54\n      jump\t// in\n    tag_89:\n        /* \"#utility.yul\":2503:2721   */\n      swap3\n      swap2\n      pop\n      pop\n      jump\t// out\n        /* \"#utility.yul\":2727:2817   */\n    tag_55:\n        /* \"#utility.yul\":2761:2768   */\n      0x00\n        /* \"#utility.yul\":2804:2809   */\n      dup2\n        /* \"#utility.yul\":2797:2810   */\n      iszero\n        /* \"#utility.yul\":2790:2811   */\n      iszero\n        /* \"#utility.yul\":2779:2811   */\n      swap1\n      pop\n        /* \"#utility.yul\":2727:2817   */\n      swap2\n      swap1\n      pop\n      jump\t// out\n        /* \"#utility.yul\":2823:2932   */\n    tag_56:\n        /* \"#utility.yul\":2904:2925   */\n      tag_92\n        /* \"#utility.yul\":2919:2924   */\n      dup2\n        /* \"#utility.yul\":2904:2925   */\n      tag_55\n      jump\t// in\n    tag_92:\n        /* \"#utility.yul\":2899:2902   */\n      dup3\n        /* \"#utility.yul\":2892:2926   */\n      mstore\n        /* \"#utility.yul\":2823:2932   */\n      pop\n      pop\n      jump\t// out\n        /* \"#utility.yul\":2938:3148   */\n    tag_32:\n        /* \"#utility.yul\":3025:3029   */\n      0x00\n        /* \"#utility.yul\":3063:3065   */\n      0x20\n        /* \"#utility.yul\":3052:3061   */\n      dup3\n        /* \"#utility.yul\":3048:3066   */\n      add\n        /* \"#utility.yul\":3040:3066   */\n      swap1\n      pop\n        /* \"#utility.yul\":3076:3141   */\n      tag_94\n        /* \"#utility.yul\":3138:3139   */\n      0x00\n        /* \"#utility.yul\":3127:3136   */\n      dup4\n        /* \"#utility.yul\":3123:3140   */\n      add\n        /* \"#utility.yul\":3114:3120   */\n      dup5\n        /* \"#utility.yul\":3076:3141   */\n      tag_56\n      jump\t// in\n    tag_94:\n        /* \"#utility.yul\":2938:3148   */\n      swap3\n      swap2\n      pop\n      pop\n      jump\t// out\n        /* \"#utility.yul\":3154:3231   */\n    tag_57:\n        /* \"#utility.yul\":3191:3198   */\n      0x00\n        /* \"#utility.yul\":3220:3225   */\n      dup2\n        /* \"#utility.yul\":3209:3225   */\n      swap1\n      pop\n        /* \"#utility.yul\":3154:3231   */\n      swap2\n      swap1\n      pop\n      jump\t// out\n        /* \"#utility.yul\":3237:3355   */\n    tag_58:\n        /* \"#utility.yul\":3324:3348   */\n      tag_97\n        /* \"#utility.yul\":3342:3347   */\n      dup2\n        /* \"#utility.yul\":3324:3348   */\n      tag_57\n      jump\t// in\n    tag_97:\n        /* \"#utility.yul\":3319:3322   */\n      dup3\n        /* \"#utility.yul\":3312:3349   */\n      mstore\n        /* \"#utility.yul\":3237:3355   */\n      pop\n      pop\n      jump\t// out\n        /* \"#utility.yul\":3361:3583   */\n    tag_36:\n        /* \"#utility.yul\":3454:3458   */\n      0x00\n        /* \"#utility.yul\":3492:3494   */\n      0x20\n        /* \"#utility.yul\":3481:3490   */\n      dup3\n        /* \"#utility.yul\":3477:3495   */\n      add\n        /* \"#utility.yul\":3469:3495   */\n      swap1\n      pop\n        /* \"#utility.yul\":3505:3576   */\n      tag_99\n        /* \"#utility.yul\":3573:3574   */\n      0x00\n        /* \"#utility.yul\":3562:3571   */\n      dup4\n        /* \"#utility.yul\":3558:3575   */\n      add\n        /* \"#utility.yul\":3549:3555   */\n      dup5\n        /* \"#utility.yul\":3505:3576   */\n      tag_58\n      jump\t// in\n    tag_99:\n        /* \"#utility.yul\":3361:3583   */\n      swap3\n      swap2\n      pop\n      pop\n      jump\t// out\n        /* \"#utility.yul\":3589:3769   */\n    tag_59:\n        /* \"#utility.yul\":3637:3714   */\n      0x4e487b7100000000000000000000000000000000000000000000000000000000\n        /* \"#utility.yul\":3634:3635   */\n      0x00\n        /* \"#utility.yul\":3627:3715   */\n      mstore\n        /* \"#utility.yul\":3734:3738   */\n      0x22\n        /* \"#utility.yul\":3731:3732   */\n      0x04\n        /* \"#utility.yul\":3724:3739   */\n      mstore\n        /* \"#utility.yul\":3758:3762   */\n      0x24\n        /* \"#utility.yul\":3755:3756   */\n      0x00\n        /* \"#utility.yul\":3748:3763   */\n      revert\n        /* \"#utility.yul\":3775:4095   */\n    tag_38:\n        /* \"#utility.yul\":3819:3825   */\n      0x00\n        /* \"#utility.yul\":3856:3857   */\n      0x02\n        /* \"#utility.yul\":3850:3854   */\n      dup3\n        /* \"#utility.yul\":3846:3858   */\n      div\n        /* \"#utility.yul\":3836:3858   */\n      swap1\n      pop\n        /* \"#utility.yul\":3903:3904   */\n      0x01\n        /* \"#utility.yul\":3897:3901   */\n      dup3\n        /* \"#utility.yul\":3893:3905   */\n      and\n        /* \"#utility.yul\":3924:3942   */\n      dup1\n        /* \"#utility.yul\":3914:3995   */\n      tag_102\n      jumpi\n        /* \"#utility.yul\":3980:3984   */\n      0x7f\n        /* \"#utility.yul\":3972:3978   */\n      dup3\n        /* \"#utility.yul\":3968:3985   */\n      and\n        /* \"#utility.yul\":3958:3985   */\n      swap2\n      pop\n        /* \"#utility.yul\":3914:3995   */\n    tag_102:\n        /* \"#utility.yul\":4042:4044   */\n      0x20\n        /* \"#utility.yul\":4034:4040   */\n      dup3\n        /* \"#utility.yul\":4031:4045   */\n      lt\n        /* \"#utility.yul\":4011:4029   */\n      dup2\n        /* \"#utility.yul\":4008:4046   */\n      sub\n        /* \"#utility.yul\":4005:4089   */\n      tag_103\n      jumpi\n        /* \"#utility.yul\":4061:4079   */\n      tag_104\n      tag_59\n      jump\t// in\n    tag_104:\n        /* \"#utility.yul\":4005:4089   */\n    tag_103:\n        /* \"#utility.yul\":3826:4095   */\n      pop\n        /* \"#utility.yul\":3775:4095   */\n      swap2\n      swap1\n      pop\n      jump\t// out\n\n    auxdata: 0xa26469706673582212202e3643912e38aba482fc6335ffdf72598e4556c06e92cabcec79e8ad4023b5ca64736f6c63430008120033\n}\n",
				"bytecode": {
					"linkReferences": {},
					"object": "608060405260016000806101000a81548160ff0219169083151502179055507fffffffffffffffffffffffffffffffffffffffffffffffffffffffffffffffe0600060016101000a81548163ffffffff021916908360030b63ffffffff16021790555060018055624c7a35600260006101000a81548163ffffffff021916908363ffffffff1602179055507f4100000000000000000000000000000000000000000000000000000000000000600260056101000a81548160ff021916908360f81c02179055506040518060400160405280601681526020017f696e69206164616c6168206461746120737472696e6700000000000000000000815250600390816200010b91906200039a565b503480156200011957600080fd5b5062000481565b600081519050919050565b7f4e487b7100000000000000000000000000000000000000000000000000000000600052604160045260246000fd5b7f4e487b7100000000000000000000000000000000000000000000000000000000600052602260045260246000fd5b60006002820490506001821680620001a257607f821691505b602082108103620001b857620001b76200015a565b5b50919050565b60008190508160005260206000209050919050565b60006020601f8301049050919050565b600082821b905092915050565b600060088302620002227fffffffffffffffffffffffffffffffffffffffffffffffffffffffffffffffff82620001e3565b6200022e8683620001e3565b95508019841693508086168417925050509392505050565b6000819050919050565b6000819050919050565b60006200027b620002756200026f8462000246565b62000250565b62000246565b9050919050565b6000819050919050565b62000297836200025a565b620002af620002a68262000282565b848454620001f0565b825550505050565b600090565b620002c6620002b7565b620002d38184846200028c565b505050565b5b81811015620002fb57620002ef600082620002bc565b600181019050620002d9565b5050565b601f8211156200034a576200031481620001be565b6200031f84620001d3565b810160208510156200032f578190505b620003476200033e85620001d3565b830182620002d8565b50505b505050565b600082821c905092915050565b60006200036f600019846008026200034f565b1980831691505092915050565b60006200038a83836200035c565b9150826002028217905092915050565b620003a58262000120565b67ffffffffffffffff811115620003c157620003c06200012b565b5b620003cd825462000189565b620003da828285620002ff565b600060209050601f831160018114620004125760008415620003fd578287015190505b6200040985826200037c565b86555062000479565b601f1984166200042286620001be565b60005b828110156200044c5784890151825560018201915060208501945060208101905062000425565b868310156200046c578489015162000468601f8916826200035c565b8355505b6001600288020188555050505b505050505050565b6104b880620004916000396000f3fe608060405234801561001057600080fd5b506004361061007d5760003560e01c806374e80a491161005b57806374e80a49146100c8578063861f708f146100e6578063c199121914610104578063d0c37748146101225761007d565b80631a4ae17a1461008257806348898752146100a057806372ee2df9146100be575b600080fd5b61008a610140565b604051610097919061027a565b60405180910390f35b6100a8610153565b6040516100b59190610325565b60405180910390f35b6100c66101e1565b005b6100d06101ff565b6040516100dd9190610363565b60405180910390f35b6100ee610212565b6040516100fb919061039d565b60405180910390f35b61010c610228565b60405161011991906103d3565b60405180910390f35b61012a610239565b6040516101379190610407565b60405180910390f35b600260059054906101000a900460f81b81565b6003805461016090610451565b80601f016020809104026020016040519081016040528092919081815260200182805461018c90610451565b80156101d95780601f106101ae576101008083540402835291602001916101d9565b820191906000526020600020905b8154815290600101906020018083116101bc57829003601f168201915b505050505081565b6005600260046101000a81548160ff021916908360ff160217905550565b600060019054906101000a900460030b81565b600260009054906101000a900463ffffffff1681565b60008054906101000a900460ff1681565b60015481565b60007fff0000000000000000000000000000000000000000000000000000000000000082169050919050565b6102748161023f565b82525050565b600060208201905061028f600083018461026b565b92915050565b600081519050919050565b600082825260208201905092915050565b60005b838110156102cf5780820151818401526020810190506102b4565b60008484015250505050565b6000601f19601f8301169050919050565b60006102f782610295565b61030181856102a0565b93506103118185602086016102b1565b61031a816102db565b840191505092915050565b6000602082019050818103600083015261033f81846102ec565b905092915050565b60008160030b9050919050565b61035d81610347565b82525050565b60006020820190506103786000830184610354565b92915050565b600063ffffffff82169050919050565b6103978161037e565b82525050565b60006020820190506103b2600083018461038e565b92915050565b60008115159050919050565b6103cd816103b8565b82525050565b60006020820190506103e860008301846103c4565b92915050565b6000819050919050565b610401816103ee565b82525050565b600060208201905061041c60008301846103f8565b92915050565b7f4e487b7100000000000000000000000000000000000000000000000000000000600052602260045260246000fd5b6000600282049050600182168061046957607f821691505b60208210810361047c5761047b610422565b5b5091905056fea26469706673582212202e3643912e38aba482fc6335ffdf72598e4556c06e92cabcec79e8ad4023b5ca64736f6c63430008120033",
					"opcodes": "PUSH1 0x80 PUSH1 0x40 MSTORE PUSH1 0x1 PUSH1 0x0 DUP1 PUSH2 0x100 EXP DUP2 SLOAD DUP2 PUSH1 0xFF MUL NOT AND SWAP1 DUP4 ISZERO ISZERO MUL OR SWAP1 SSTORE POP PUSH32 0xFFFFFFFFFFFFFFFFFFFFFFFFFFFFFFFFFFFFFFFFFFFFFFFFFFFFFFFFFFFFFFE0 PUSH1 0x0 PUSH1 0x1 PUSH2 0x100 EXP DUP2 SLOAD DUP2 PUSH4 0xFFFFFFFF MUL NOT AND SWAP1 DUP4 PUSH1 0x3 SIGNEXTEND PUSH4 0xFFFFFFFF AND MUL OR SWAP1 SSTORE POP PUSH1 0x1 DUP1 SSTORE PUSH3 0x4C7A35 PUSH1 0x2 PUSH1 0x0 PUSH2 0x100 EXP DUP2 SLOAD DUP2 PUSH4 0xFFFFFFFF MUL NOT AND SWAP1 DUP4 PUSH4 0xFFFFFFFF AND MUL OR SWAP1 SSTORE POP PUSH32 0x4100000000000000000000000000000000000000000000000000000000000000 PUSH1 0x2 PUSH1 0x5 PUSH2 0x100 EXP DUP2 SLOAD DUP2 PUSH1 0xFF MUL NOT AND SWAP1 DUP4 PUSH1 0xF8 SHR MUL OR SWAP1 SSTORE POP PUSH1 0x40 MLOAD DUP1 PUSH1 0x40 ADD PUSH1 0x40 MSTORE DUP1 PUSH1 0x16 DUP2 MSTORE PUSH1 0x20 ADD PUSH32 0x696E69206164616C6168206461746120737472696E6700000000000000000000 DUP2 MSTORE POP PUSH1 0x3 SWAP1 DUP2 PUSH3 0x10B SWAP2 SWAP1 PUSH3 0x39A JUMP JUMPDEST POP CALLVALUE DUP1 ISZERO PUSH3 0x119 JUMPI PUSH1 0x0 DUP1 REVERT JUMPDEST POP PUSH3 0x481 JUMP JUMPDEST PUSH1 0x0 DUP2 MLOAD SWAP1 POP SWAP2 SWAP1 POP JUMP JUMPDEST PUSH32 0x4E487B7100000000000000000000000000000000000000000000000000000000 PUSH1 0x0 MSTORE PUSH1 0x41 PUSH1 0x4 MSTORE PUSH1 0x24 PUSH1 0x0 REVERT JUMPDEST PUSH32 0x4E487B7100000000000000000000000000000000000000000000000000000000 PUSH1 0x0 MSTORE PUSH1 0x22 PUSH1 0x4 MSTORE PUSH1 0x24 PUSH1 0x0 REVERT JUMPDEST PUSH1 0x0 PUSH1 0x2 DUP3 DIV SWAP1 POP PUSH1 0x1 DUP3 AND DUP1 PUSH3 0x1A2 JUMPI PUSH1 0x7F DUP3 AND SWAP2 POP JUMPDEST PUSH1 0x20 DUP3 LT DUP2 SUB PUSH3 0x1B8 JUMPI PUSH3 0x1B7 PUSH3 0x15A JUMP JUMPDEST JUMPDEST POP SWAP2 SWAP1 POP JUMP JUMPDEST PUSH1 0x0 DUP2 SWAP1 POP DUP2 PUSH1 0x0 MSTORE PUSH1 0x20 PUSH1 0x0 KECCAK256 SWAP1 POP SWAP2 SWAP1 POP JUMP JUMPDEST PUSH1 0x0 PUSH1 0x20 PUSH1 0x1F DUP4 ADD DIV SWAP1 POP SWAP2 SWAP1 POP JUMP JUMPDEST PUSH1 0x0 DUP3 DUP3 SHL SWAP1 POP SWAP3 SWAP2 POP POP JUMP JUMPDEST PUSH1 0x0 PUSH1 0x8 DUP4 MUL PUSH3 0x222 PUSH32 0xFFFFFFFFFFFFFFFFFFFFFFFFFFFFFFFFFFFFFFFFFFFFFFFFFFFFFFFFFFFFFFFF DUP3 PUSH3 0x1E3 JUMP JUMPDEST PUSH3 0x22E DUP7 DUP4 PUSH3 0x1E3 JUMP JUMPDEST SWAP6 POP DUP1 NOT DUP5 AND SWAP4 POP DUP1 DUP7 AND DUP5 OR SWAP3 POP POP POP SWAP4 SWAP3 POP POP POP JUMP JUMPDEST PUSH1 0x0 DUP2 SWAP1 POP SWAP2 SWAP1 POP JUMP JUMPDEST PUSH1 0x0 DUP2 SWAP1 POP SWAP2 SWAP1 POP JUMP JUMPDEST PUSH1 0x0 PUSH3 0x27B PUSH3 0x275 PUSH3 0x26F DUP5 PUSH3 0x246 JUMP JUMPDEST PUSH3 0x250 JUMP JUMPDEST PUSH3 0x246 JUMP JUMPDEST SWAP1 POP SWAP2 SWAP1 POP JUMP JUMPDEST PUSH1 0x0 DUP2 SWAP1 POP SWAP2 SWAP1 POP JUMP JUMPDEST PUSH3 0x297 DUP4 PUSH3 0x25A JUMP JUMPDEST PUSH3 0x2AF PUSH3 0x2A6 DUP3 PUSH3 0x282 JUMP JUMPDEST DUP5 DUP5 SLOAD PUSH3 0x1F0 JUMP JUMPDEST DUP3 SSTORE POP POP POP POP JUMP JUMPDEST PUSH1 0x0 SWAP1 JUMP JUMPDEST PUSH3 0x2C6 PUSH3 0x2B7 JUMP JUMPDEST PUSH3 0x2D3 DUP2 DUP5 DUP5 PUSH3 0x28C JUMP JUMPDEST POP POP POP JUMP JUMPDEST JUMPDEST DUP2 DUP2 LT ISZERO PUSH3 0x2FB JUMPI PUSH3 0x2EF PUSH1 0x0 DUP3 PUSH3 0x2BC JUMP JUMPDEST PUSH1 0x1 DUP2 ADD SWAP1 POP PUSH3 0x2D9 JUMP JUMPDEST POP POP JUMP JUMPDEST PUSH1 0x1F DUP3 GT ISZERO PUSH3 0x34A JUMPI PUSH3 0x314 DUP2 PUSH3 0x1BE JUMP JUMPDEST PUSH3 0x31F DUP5 PUSH3 0x1D3 JUMP JUMPDEST DUP2 ADD PUSH1 0x20 DUP6 LT ISZERO PUSH3 0x32F JUMPI DUP2 SWAP1 POP JUMPDEST PUSH3 0x347 PUSH3 0x33E DUP6 PUSH3 0x1D3 JUMP JUMPDEST DUP4 ADD DUP3 PUSH3 0x2D8 JUMP JUMPDEST POP POP JUMPDEST POP POP POP JUMP JUMPDEST PUSH1 0x0 DUP3 DUP3 SHR SWAP1 POP SWAP3 SWAP2 POP POP JUMP JUMPDEST PUSH1 0x0 PUSH3 0x36F PUSH1 0x0 NOT DUP5 PUSH1 0x8 MUL PUSH3 0x34F JUMP JUMPDEST NOT DUP1 DUP4 AND SWAP2 POP POP SWAP3 SWAP2 POP POP JUMP JUMPDEST PUSH1 0x0 PUSH3 0x38A DUP4 DUP4 PUSH3 0x35C JUMP JUMPDEST SWAP2 POP DUP3 PUSH1 0x2 MUL DUP3 OR SWAP1 POP SWAP3 SWAP2 POP POP JUMP JUMPDEST PUSH3 0x3A5 DUP3 PUSH3 0x120 JUMP JUMPDEST PUSH8 0xFFFFFFFFFFFFFFFF DUP2 GT ISZERO PUSH3 0x3C1 JUMPI PUSH3 0x3C0 PUSH3 0x12B JUMP JUMPDEST JUMPDEST PUSH3 0x3CD DUP3 SLOAD PUSH3 0x189 JUMP JUMPDEST PUSH3 0x3DA DUP3 DUP3 DUP6 PUSH3 0x2FF JUMP JUMPDEST PUSH1 0x0 PUSH1 0x20 SWAP1 POP PUSH1 0x1F DUP4 GT PUSH1 0x1 DUP2 EQ PUSH3 0x412 JUMPI PUSH1 0x0 DUP5 ISZERO PUSH3 0x3FD JUMPI DUP3 DUP8 ADD MLOAD SWAP1 POP JUMPDEST PUSH3 0x409 DUP6 DUP3 PUSH3 0x37C JUMP JUMPDEST DUP7 SSTORE POP PUSH3 0x479 JUMP JUMPDEST PUSH1 0x1F NOT DUP5 AND PUSH3 0x422 DUP7 PUSH3 0x1BE JUMP JUMPDEST PUSH1 0x0 JUMPDEST DUP3 DUP2 LT ISZERO PUSH3 0x44C JUMPI DUP5 DUP10 ADD MLOAD DUP3 SSTORE PUSH1 0x1 DUP3 ADD SWAP2 POP PUSH1 0x20 DUP6 ADD SWAP5 POP PUSH1 0x20 DUP2 ADD SWAP1 POP PUSH3 0x425 JUMP JUMPDEST DUP7 DUP4 LT ISZERO PUSH3 0x46C JUMPI DUP5 DUP10 ADD MLOAD PUSH3 0x468 PUSH1 0x1F DUP10 AND DUP3 PUSH3 0x35C JUMP JUMPDEST DUP4 SSTORE POP JUMPDEST PUSH1 0x1 PUSH1 0x2 DUP9 MUL ADD DUP9 SSTORE POP POP POP JUMPDEST POP POP POP POP POP POP JUMP JUMPDEST PUSH2 0x4B8 DUP1 PUSH3 0x491 PUSH1 0x0 CODECOPY PUSH1 0x0 RETURN INVALID PUSH1 0x80 PUSH1 0x40 MSTORE CALLVALUE DUP1 ISZERO PUSH2 0x10 JUMPI PUSH1 0x0 DUP1 REVERT JUMPDEST POP PUSH1 0x4 CALLDATASIZE LT PUSH2 0x7D JUMPI PUSH1 0x0 CALLDATALOAD PUSH1 0xE0 SHR DUP1 PUSH4 0x74E80A49 GT PUSH2 0x5B JUMPI DUP1 PUSH4 0x74E80A49 EQ PUSH2 0xC8 JUMPI DUP1 PUSH4 0x861F708F EQ PUSH2 0xE6 JUMPI DUP1 PUSH4 0xC1991219 EQ PUSH2 0x104 JUMPI DUP1 PUSH4 0xD0C37748 EQ PUSH2 0x122 JUMPI PUSH2 0x7D JUMP JUMPDEST DUP1 PUSH4 0x1A4AE17A EQ PUSH2 0x82 JUMPI DUP1 PUSH4 0x48898752 EQ PUSH2 0xA0 JUMPI DUP1 PUSH4 0x72EE2DF9 EQ PUSH2 0xBE JUMPI JUMPDEST PUSH1 0x0 DUP1 REVERT JUMPDEST PUSH2 0x8A PUSH2 0x140 JUMP JUMPDEST PUSH1 0x40 MLOAD PUSH2 0x97 SWAP2 SWAP1 PUSH2 0x27A JUMP JUMPDEST PUSH1 0x40 MLOAD DUP1 SWAP2 SUB SWAP1 RETURN JUMPDEST PUSH2 0xA8 PUSH2 0x153 JUMP JUMPDEST PUSH1 0x40 MLOAD PUSH2 0xB5 SWAP2 SWAP1 PUSH2 0x325 JUMP JUMPDEST PUSH1 0x40 MLOAD DUP1 SWAP2 SUB SWAP1 RETURN JUMPDEST PUSH2 0xC6 PUSH2 0x1E1 JUMP JUMPDEST STOP JUMPDEST PUSH2 0xD0 PUSH2 0x1FF JUMP JUMPDEST PUSH1 0x40 MLOAD PUSH2 0xDD SWAP2 SWAP1 PUSH2 0x363 JUMP JUMPDEST PUSH1 0x40 MLOAD DUP1 SWAP2 SUB SWAP1 RETURN JUMPDEST PUSH2 0xEE PUSH2 0x212 JUMP JUMPDEST PUSH1 0x40 MLOAD PUSH2 0xFB SWAP2 SWAP1 PUSH2 0x39D JUMP JUMPDEST PUSH1 0x40 MLOAD DUP1 SWAP2 SUB SWAP1 RETURN JUMPDEST PUSH2 0x10C PUSH2 0x228 JUMP JUMPDEST PUSH1 0x40 MLOAD PUSH2 0x119 SWAP2 SWAP1 PUSH2 0x3D3 JUMP JUMPDEST PUSH1 0x40 MLOAD DUP1 SWAP2 SUB SWAP1 RETURN JUMPDEST PUSH2 0x12A PUSH2 0x239 JUMP JUMPDEST PUSH1 0x40 MLOAD PUSH2 0x137 SWAP2 SWAP1 PUSH2 0x407 JUMP JUMPDEST PUSH1 0x40 MLOAD DUP1 SWAP2 SUB SWAP1 RETURN JUMPDEST PUSH1 0x2 PUSH1 0x5 SWAP1 SLOAD SWAP1 PUSH2 0x100 EXP SWAP1 DIV PUSH1 0xF8 SHL DUP2 JUMP JUMPDEST PUSH1 0x3 DUP1 SLOAD PUSH2 0x160 SWAP1 PUSH2 0x451 JUMP JUMPDEST DUP1 PUSH1 0x1F ADD PUSH1 0x20 DUP1 SWAP2 DIV MUL PUSH1 0x20 ADD PUSH1 0x40 MLOAD SWAP1 DUP2 ADD PUSH1 0x40 MSTORE DUP1 SWAP3 SWAP2 SWAP1 DUP2 DUP2 MSTORE PUSH1 0x20 ADD DUP3 DUP1 SLOAD PUSH2 0x18C SWAP1 PUSH2 0x451 JUMP JUMPDEST DUP1 ISZERO PUSH2 0x1D9 JUMPI DUP1 PUSH1 0x1F LT PUSH2 0x1AE JUMPI PUSH2 0x100 DUP1 DUP4 SLOAD DIV MUL DUP4 MSTORE SWAP2 PUSH1 0x20 ADD SWAP2 PUSH2 0x1D9 JUMP JUMPDEST DUP3 ADD SWAP2 SWAP1 PUSH1 0x0 MSTORE PUSH1 0x20 PUSH1 0x0 KECCAK256 SWAP1 JUMPDEST DUP2 SLOAD DUP2 MSTORE SWAP1 PUSH1 0x1 ADD SWAP1 PUSH1 0x20 ADD DUP1 DUP4 GT PUSH2 0x1BC JUMPI DUP3 SWAP1 SUB PUSH1 0x1F AND DUP3 ADD SWAP2 JUMPDEST POP POP POP POP POP DUP2 JUMP JUMPDEST PUSH1 0x5 PUSH1 0x2 PUSH1 0x4 PUSH2 0x100 EXP DUP2 SLOAD DUP2 PUSH1 0xFF MUL NOT AND SWAP1 DUP4 PUSH1 0xFF AND MUL OR SWAP1 SSTORE POP JUMP JUMPDEST PUSH1 0x0 PUSH1 0x1 SWAP1 SLOAD SWAP1 PUSH2 0x100 EXP SWAP1 DIV PUSH1 0x3 SIGNEXTEND DUP2 JUMP JUMPDEST PUSH1 0x2 PUSH1 0x0 SWAP1 SLOAD SWAP1 PUSH2 0x100 EXP SWAP1 DIV PUSH4 0xFFFFFFFF AND DUP2 JUMP JUMPDEST PUSH1 0x0 DUP1 SLOAD SWAP1 PUSH2 0x100 EXP SWAP1 DIV PUSH1 0xFF AND DUP2 JUMP JUMPDEST PUSH1 0x1 SLOAD DUP2 JUMP JUMPDEST PUSH1 0x0 PUSH32 0xFF00000000000000000000000000000000000000000000000000000000000000 DUP3 AND SWAP1 POP SWAP2 SWAP1 POP JUMP JUMPDEST PUSH2 0x274 DUP2 PUSH2 0x23F JUMP JUMPDEST DUP3 MSTORE POP POP JUMP JUMPDEST PUSH1 0x0 PUSH1 0x20 DUP3 ADD SWAP1 POP PUSH2 0x28F PUSH1 0x0 DUP4 ADD DUP5 PUSH2 0x26B JUMP JUMPDEST SWAP3 SWAP2 POP POP JUMP JUMPDEST PUSH1 0x0 DUP2 MLOAD SWAP1 POP SWAP2 SWAP1 POP JUMP JUMPDEST PUSH1 0x0 DUP3 DUP3 MSTORE PUSH1 0x20 DUP3 ADD SWAP1 POP SWAP3 SWAP2 POP POP JUMP JUMPDEST PUSH1 0x0 JUMPDEST DUP4 DUP2 LT ISZERO PUSH2 0x2CF JUMPI DUP1 DUP3 ADD MLOAD DUP2 DUP5 ADD MSTORE PUSH1 0x20 DUP2 ADD SWAP1 POP PUSH2 0x2B4 JUMP JUMPDEST PUSH1 0x0 DUP5 DUP5 ADD MSTORE POP POP POP POP JUMP JUMPDEST PUSH1 0x0 PUSH1 0x1F NOT PUSH1 0x1F DUP4 ADD AND SWAP1 POP SWAP2 SWAP1 POP JUMP JUMPDEST PUSH1 0x0 PUSH2 0x2F7 DUP3 PUSH2 0x295 JUMP JUMPDEST PUSH2 0x301 DUP2 DUP6 PUSH2 0x2A0 JUMP JUMPDEST SWAP4 POP PUSH2 0x311 DUP2 DUP6 PUSH1 0x20 DUP7 ADD PUSH2 0x2B1 JUMP JUMPDEST PUSH2 0x31A DUP2 PUSH2 0x2DB JUMP JUMPDEST DUP5 ADD SWAP2 POP POP SWAP3 SWAP2 POP POP JUMP JUMPDEST PUSH1 0x0 PUSH1 0x20 DUP3 ADD SWAP1 POP DUP2 DUP2 SUB PUSH1 0x0 DUP4 ADD MSTORE PUSH2 0x33F DUP2 DUP5 PUSH2 0x2EC JUMP JUMPDEST SWAP1 POP SWAP3 SWAP2 POP POP JUMP JUMPDEST PUSH1 0x0 DUP2 PUSH1 0x3 SIGNEXTEND SWAP1 POP SWAP2 SWAP1 POP JUMP JUMPDEST PUSH2 0x35D DUP2 PUSH2 0x347 JUMP JUMPDEST DUP3 MSTORE POP POP JUMP JUMPDEST PUSH1 0x0 PUSH1 0x20 DUP3 ADD SWAP1 POP PUSH2 0x378 PUSH1 0x0 DUP4 ADD DUP5 PUSH2 0x354 JUMP JUMPDEST SWAP3 SWAP2 POP POP JUMP JUMPDEST PUSH1 0x0 PUSH4 0xFFFFFFFF DUP3 AND SWAP1 POP SWAP2 SWAP1 POP JUMP JUMPDEST PUSH2 0x397 DUP2 PUSH2 0x37E JUMP JUMPDEST DUP3 MSTORE POP POP JUMP JUMPDEST PUSH1 0x0 PUSH1 0x20 DUP3 ADD SWAP1 POP PUSH2 0x3B2 PUSH1 0x0 DUP4 ADD DUP5 PUSH2 0x38E JUMP JUMPDEST SWAP3 SWAP2 POP POP JUMP JUMPDEST PUSH1 0x0 DUP2 ISZERO ISZERO SWAP1 POP SWAP2 SWAP1 POP JUMP JUMPDEST PUSH2 0x3CD DUP2 PUSH2 0x3B8 JUMP JUMPDEST DUP3 MSTORE POP POP JUMP JUMPDEST PUSH1 0x0 PUSH1 0x20 DUP3 ADD SWAP1 POP PUSH2 0x3E8 PUSH1 0x0 DUP4 ADD DUP5 PUSH2 0x3C4 JUMP JUMPDEST SWAP3 SWAP2 POP POP JUMP JUMPDEST PUSH1 0x0 DUP2 SWAP1 POP SWAP2 SWAP1 POP JUMP JUMPDEST PUSH2 0x401 DUP2 PUSH2 0x3EE JUMP JUMPDEST DUP3 MSTORE POP POP JUMP JUMPDEST PUSH1 0x0 PUSH1 0x20 DUP3 ADD SWAP1 POP PUSH2 0x41C PUSH1 0x0 DUP4 ADD DUP5 PUSH2 0x3F8 JUMP JUMPDEST SWAP3 SWAP2 POP POP JUMP JUMPDEST PUSH32 0x4E487B7100000000000000000000000000000000000000000000000000000000 PUSH1 0x0 MSTORE PUSH1 0x22 PUSH1 0x4 MSTORE PUSH1 0x24 PUSH1 0x0 REVERT JUMPDEST PUSH1 0x0 PUSH1 0x2 DUP3 DIV SWAP1 POP PUSH1 0x1 DUP3 AND DUP1 PUSH2 0x469 JUMPI PUSH1 0x7F DUP3 AND SWAP2 POP JUMPDEST PUSH1 0x20 DUP3 LT DUP2 SUB PUSH2 0x47C JUMPI PUSH2 0x47B PUSH2 0x422 JUMP JUMPDEST JUMPDEST POP SWAP2 SWAP1 POP JUMP INVALID LOG2 PUSH5 0x6970667358 0x22 SLT KECCAK256 0x2E CALLDATASIZE NUMBER SWAP2 0x2E CODESIZE 0xAB LOG4 DUP3 0xFC PUSH4 0x35FFDF72 MSIZE DUP15 GASLIMIT JUMP 0xC0 PUSH15 0x92CABCEC79E8AD4023B5CA64736F6C PUSH4 0x43000812 STOP CALLER "
				},
				"gasEstimates": {
					"creation": {
						"codeDepositCost": "241600",
						"executionCost": "infinite",
						"totalCost": "infinite"
					},
					"external": {
						"angkaku()": "2525",
						"angkamu()": "2495",
						"huruf()": "2522",
						"kalimat()": "infinite",
						"tambah()": "24506",
						"ui_data()": "2493",
						"valid()": "2512"
					}
				},
				"methodIdentifiers": {
					"angkaku()": "74e80a49",
					"angkamu()": "d0c37748",
					"huruf()": "1a4ae17a",
					"kalimat()": "48898752",
					"tambah()": "72ee2df9",
					"ui_data()": "861f708f",
					"valid()": "c1991219"
				}
			},
			"storageLayout": {
				"storage": [
					{
						"astId": 33,
						"contract": "contracts/VariableTypes.sol:Types",
						"label": "valid",
						"offset": 0,
						"slot": "0",
						"type": "t_bool"
					},
					{
						"astId": 37,
						"contract": "contracts/VariableTypes.sol:Types",
						"label": "angkaku",
						"offset": 1,
						"slot": "0",
						"type": "t_int32"
					},
					{
						"astId": 40,
						"contract": "contracts/VariableTypes.sol:Types",
						"label": "angkamu",
						"offset": 0,
						"slot": "1",
						"type": "t_uint256"
					},
					{
						"astId": 43,
						"contract": "contracts/VariableTypes.sol:Types",
						"label": "ui_data",
						"offset": 0,
						"slot": "2",
						"type": "t_uint32"
					},
					{
						"astId": 45,
						"contract": "contracts/VariableTypes.sol:Types",
						"label": "result",
						"offset": 4,
						"slot": "2",
						"type": "t_uint8"
					},
					{
						"astId": 58,
						"contract": "contracts/VariableTypes.sol:Types",
						"label": "huruf",
						"offset": 5,
						"slot": "2",
						"type": "t_bytes1"
					},
					{
						"astId": 61,
						"contract": "contracts/VariableTypes.sol:Types",
						"label": "kalimat",
						"offset": 0,
						"slot": "3",
						"type": "t_string_storage"
					}
				],
				"types": {
					"t_bool": {
						"encoding": "inplace",
						"label": "bool",
						"numberOfBytes": "1"
					},
					"t_bytes1": {
						"encoding": "inplace",
						"label": "bytes1",
						"numberOfBytes": "1"
					},
					"t_int32": {
						"encoding": "inplace",
						"label": "int32",
						"numberOfBytes": "4"
					},
					"t_string_storage": {
						"encoding": "bytes",
						"label": "string",
						"numberOfBytes": "32"
					},
					"t_uint256": {
						"encoding": "inplace",
						"label": "uint256",
						"numberOfBytes": "32"
					},
					"t_uint32": {
						"encoding": "inplace",
						"label": "uint32",
						"numberOfBytes": "4"
					},
					"t_uint8": {
						"encoding": "inplace",
						"label": "uint8",
						"numberOfBytes": "1"
					}
				}
			},
			"userdoc": {
				"kind": "user",
				"methods": {},
				"version": 1
			}
		}
	}
}