{
	"data": {
		"bytecode": {
			"linkReferences": {},
			"object": "608060405234801561001057600080fd5b50610109806100206000396000f3fe6080604052348015600f57600080fd5b506004361060285760003560e01c8063f0ebce5a14602d575b600080fd5b60336047565b604051603e919060ba565b60405180910390f35b600090565b7f4e487b7100000000000000000000000000000000000000000000000000000000600052602160045260246000fd5b600381106089576088604c565b5b50565b6000819050609882607b565b919050565b600060a682608c565b9050919050565b60b481609d565b82525050565b600060208201905060cd600083018460ad565b9291505056fea2646970667358221220410d1cc168aa05accce0cff79454c1148bc5aba46b8bf3f254561bb55c565c4764736f6c63430008120033",
			"opcodes": "PUSH1 0x80 PUSH1 0x40 MSTORE CALLVALUE DUP1 ISZERO PUSH2 0x10 JUMPI PUSH1 0x0 DUP1 REVERT JUMPDEST POP PUSH2 0x109 DUP1 PUSH2 0x20 PUSH1 0x0 CODECOPY PUSH1 0x0 RETURN INVALID PUSH1 0x80 PUSH1 0x40 MSTORE CALLVALUE DUP1 ISZERO PUSH1 0xF JUMPI PUSH1 0x0 DUP1 REVERT JUMPDEST POP PUSH1 0x4 CALLDATASIZE LT PUSH1 0x28 JUMPI PUSH1 0x0 CALLDATALOAD PUSH1 0xE0 SHR DUP1 PUSH4 0xF0EBCE5A EQ PUSH1 0x2D JUMPI JUMPDEST PUSH1 0x0 DUP1 REVERT JUMPDEST PUSH1 0x33 PUSH1 0x47 JUMP JUMPDEST PUSH1 0x40 MLOAD PUSH1 0x3E SWAP2 SWAP1 PUSH1 0xBA JUMP JUMPDEST PUSH1 0x40 MLOAD DUP1 SWAP2 SUB SWAP1 RETURN JUMPDEST PUSH1 0x0 SWAP1 JUMP JUMPDEST PUSH32 0x4E487B7100000000000000000000000000000000000000000000000000000000 PUSH1 0x0 MSTORE PUSH1 0x21 PUSH1 0x4 MSTORE PUSH1 0x24 PUSH1 0x0 REVERT JUMPDEST PUSH1 0x3 DUP2 LT PUSH1 0x89 JUMPI PUSH1 0x88 PUSH1 0x4C JUMP JUMPDEST JUMPDEST POP JUMP JUMPDEST PUSH1 0x0 DUP2 SWAP1 POP PUSH1 0x98 DUP3 PUSH1 0x7B JUMP JUMPDEST SWAP2 SWAP1 POP JUMP JUMPDEST PUSH1 0x0 PUSH1 0xA6 DUP3 PUSH1 0x8C JUMP JUMPDEST SWAP1 POP SWAP2 SWAP1 POP JUMP JUMPDEST PUSH1 0xB4 DUP2 PUSH1 0x9D JUMP JUMPDEST DUP3 MSTORE POP POP JUMP JUMPDEST PUSH1 0x0 PUSH1 0x20 DUP3 ADD SWAP1 POP PUSH1 0xCD PUSH1 0x0 DUP4 ADD DUP5 PUSH1 0xAD JUMP JUMPDEST SWAP3 SWAP2 POP POP JUMP INVALID LOG2 PUSH5 0x6970667358 0x22 SLT KECCAK256 COINBASE 0xD SHR 0xC1 PUSH9 0xAA05ACCCE0CFF79454 0xC1 EQ DUP12 0xC5 0xAB LOG4 PUSH12 0x8BF3F254561BB55C565C4764 PUSH20 0x6F6C634300081200330000000000000000000000 "
		},
		"gasEstimates": {
			"creation": {
				"codeDepositCost": "53000",
				"executionCost": "105",
				"totalCost": "53105"
			},
			"external": {
				"getEnum()": "402"
			}
		},
		"methodIdentifiers": {
			"getEnum()": "f0ebce5a"
		}
	},
	"abi": [
		{
			"inputs": [],
			"name": "getEnum",
			"outputs": [
				{
					"internalType": "enum EnumSaya.Jobs",
					"name": "",
					"type": "uint8"
				}
			],
			"stateMutability": "pure",
			"type": "function"
		}
	]
}